:020000040800F2
:100000000000022089790008D9790008D979000810
:10001000D9790008D9790008D979000800000000D2
:100020000000000000000000000000005165000812
:10003000D979000800000000F16500084976000841
:10004000D9790008D9790008D9790008D979000848
:10005000D9790008D9790008D9790008D979000838
:10006000D9790008D9790008D9790008D979000828
:10007000D9790008D9790008D9790008D979000818
:10008000D9790008D9790008D9790008D979000808
:10009000D9790008D9790008D9790008D9790008F8
:1000A000D9790008D9790008D9790008D9790008E8
:1000B000D9790008D9790008D9790008D9790008D8
:1000C000D9790008D9790008D9790008D9790008C8
:1000D000D9790008D9790008D9790008D9790008B8
:1000E000D9790008D9790008D9790008D9790008A8
:1000F000D9790008D9790008D9790008D979000898
:10010000D9790008D9790008D9790008D979000887
:10011000D9790008D9790008D9790008D979000877
:10012000D9790008D9790008D9790008D979000867
:10013000D9790008D9790008D9790008D979000857
:10014000D9790008D9790008D979000855760008CE
:10015000D9790008D9790008D9790008D979000837
:10016000D9790008D9790008D9790008D979000827
:10017000D9790008D9790008D97900080000000071
:08018000D9790008D9790008C3
:1001900010B5054C237833B9044B13B10448AFF3C1
:1001A00000800123237010BD180200200000000011
:1001B000348C000808B5034B1BB103490348AFF367
:1001C000008008BD000000001C020020348C0008E4
:1001D00053B94AB9002908BF00281CBF4FF0FF31AE
:1001E0004FF0FF3000F072B9ADF1080C6DE904CEAC
:1001F00000F006F8DDF804E0DDE9022304B0704702
:100200002DE9F047089E04468846002B4BD18A42D0
:10021000154667D9B2FA82F24AB1C2F1200701FA53
:1002200002F320FA07F7954047EA030894404FEAA3
:10023000154E230CB8FBFEF71FFA85FC0EFB178842
:1002400043EA084307FB0CF1994209D9EB1807F17F
:10025000FF3080F01B81994240F21881023F2B440D
:100260005B1AA4B2B3FBFEF00EFB103344EA034466
:1002700000FB0CFCA44509D92C1900F1FF3380F0D8
:100280000781A44540F2048102382C4440EA07402B
:10029000A4EB0C0400271EB1D4400023C6E90043A0
:1002A0003946BDE8F0878B4209D9002E00F0EB807B
:1002B0000027C6E9000138463946BDE8F087B3FAA1
:1002C00083F7002F47D18B4202D3824200F2FA809B
:1002D000841A61EB030301209846002EE0D0C6E9A2
:1002E0000048DDE702B9FFDEB2FA82F2002A40F0F0
:1002F0008F80491B4FEA154E1FFA85F80127B1FB85
:10030000FEFC230C0EFB1C1143EA014308FB0CF11D
:10031000994207D9EB180CF1FF3002D2994200F252
:10032000CD808446591AA3B2B1FBFEF00EFB101427
:1003300043EA044408FB00F8A04507D92C1900F152
:10034000FF3302D2A04500F2B6801846A4EB0804A1
:1003500040EA0C409FE7C7F1200CBB4022FA0CFE9C
:100360004EEA030E01FA07F420FA0CF521FA0CF319
:100370004FEA1E482543B3FBF8F92C0C08FB193350
:100380001FFA8EFA44EA034309FB0AF49C4202FA7C
:1003900007F200FA07F10BD91EEB030309F1FF3056
:1003A00080F087809C4240F28480A9F10209734466
:1003B0001B1BADB2B3FBF8F008FB103345EA034456
:1003C00000FB0AFAA24508D91EEB040400F1FF3332
:1003D0006BD2A24569D90238744440EA0940A0FBB7
:1003E0000289A4EB0A044C45C2464B4654D351D073
:1003F000002E69D0B1EB0A0564EB030404FA0CFC8F
:10040000FD40FC404CEA0505C6E90054002747E7DB
:10041000C2F1200320FA03F7954001FA02F021FA15
:1004200003F34FEA154E3843010CB3FBFEF71FFAF6
:1004300085F80EFB173341EA034107FB08F38B42B3
:1004400004FA02F407D9691807F1FF3C2FD28B4256
:100450002DD9023F2944CB1A81B2B3FBFEF00EFB2B
:10046000103341EA034100FB08F38B4207D96918B6
:1004700000F1FF3C17D28B4215D902382944C91A22
:1004800040EA07473BE73746304609E70746E7E6D5
:100490001846FBE64145ABD2B8EB020A69EB0E0207
:1004A00001381346A4E76046E9E7184695E7674632
:1004B000D1E781467CE702382C4447E7ACF1020CD7
:1004C0002B442FE7384608E73746E9E6704700BF78
:1004D000034613F8012B002AFBD1181A0138704784
:1004E00001F0FF01102A2BDB10F0070F08D010F8E5
:1004F000013B013A8B422DD010F0070F42B3F6D1E9
:10050000F0B441EA012141EA014122F007047FF001
:1005100000070023F0E80256083C85EA010586EA58
:10052000010685FA47F5A3FA87F586FA47F6A5FA94
:1005300087F68EB9EED1F0BC01F0FF0102F00702A0
:1005400032B110F8013B013A83EA010313B1F8D14B
:100550000020704701387047002D06BF354603382C
:10056000073815F0010F07D1013015F4807F02BF65
:10057000013015F4C03F0130F0BC0138704700BFB6
:1005800010B504460E4B18784FF47A73B3FBF0F3B2
:100590000C4A1068B0FBF3F000F00CFB68B90F2CAC
:1005A00001D901200AE0002221464FF0FF3000F07F
:1005B000C1FA034B5C60002000E0012010BD00BFC9
:1005C000000000204400002008B50B4B1A6842F4DC
:1005D00000721A601A6842F480621A601A6842F463
:1005E00080721A60032000F093FA0F20FFF7C8FF13
:1005F00006F0CAFE002008BD003C0240034A116814
:10060000034B1B780B441360704700BFA83F0020CA
:1006100000000020014B1868704700BFA83F002071
:1006200038B50446FFF7F6FF0546B4F1FF3F02D0A8
:10063000044B1B781C44FFF7EDFF401BA042FAD38C
:1006400038BD00BF00000020494B5A6822F44032F8
:100650005A605A6841680A435A600268536823F432
:100660008073536002685368016943EA0123536051
:100670000268536823F040735360026853688168CE
:100680000B4353600268936823F40063936002682D
:100690009368C1680B439360826A364B9A4249D093
:1006A0000268936823F07063936002689368816ABC
:1006B0000B4393600268936823F040539360026891
:1006C0009368C16A0B4393600268936823F0020346
:1006D000936002689368816943EA41039360036A07
:1006E000002B32D10268536823F400635360026820
:1006F000D36A23F47003D3620168CB6AC269013AFA
:1007000043EA0253CB620268936823F40073936058
:1007100002689368016B43EA41239360026893681F
:1007200023F48063936002689368416943EA8123FC
:10073000936070470268936823F070639360026867
:10074000936823F040539360BEE70268536843F414
:10075000006353600268536823F460435360016888
:100760004B68426A013A43EA42334B60BFE700BF3D
:10077000002301400100000F30B310B50446036CA4
:1007800043B1236C13F0100F0AD00120002384F82A
:100790003C3010BD436480F83C3006F03FFEF0E78B
:1007A000236C23F4885323F0020343F002032364F1
:1007B0002046FFF749FF00206064236C23F0030309
:1007C00043F001032364E1E70120704782B0002376
:1007D000019390F83C30012B63D0012380F83C302A
:1007E00003689A6812F0010F13D19A6842F001026F
:1007F0009A60304B1B68304AA2FB03239B0C03EB2F
:100800004303019302E0019B013B0193019B002BF9
:10081000F9D10268936813F0010F44D0036C23F4FC
:10082000E06323F0010343F480730364536813F41B
:10083000806F05D0036C23F4405343F4805303646A
:10084000036C13F4805F19D0436C23F006034364F8
:10085000002380F83C306FF022031360174B5B6875
:1008600013F01F0F0DD103689A6812F0405F1DD17D
:100870009A6842F080429A60002015E000234364A9
:10088000E6E703680E4A934201D000200CE09A6824
:1008900012F0405F0CD19A6842F080429A600020CA
:1008A00002E0022000E0002002B070470020FBE7D9
:1008B0000020F9E74400002083DE1B4300230140B1
:1008C0000020014003689A6812F4806F03D09B688F
:1008D00013F4807F1CD170B50D460446FFF79AFED5
:1008E000064623681A6812F0020F1AD1B5F1FF3FCD
:1008F000F7D025B1FFF78EFE801BA842F1D9236CFB
:1009000043F004032364002384F83C3003202DE0EB
:10091000036C43F020030364002380F83C30012083
:1009200070476FF012021A60236C43F40073236463
:1009300023689A6812F0405F17D1A269BAB9DA6ADF
:1009400012F4700F03D09B6813F4806F11D1236CE5
:1009500023F480732364236C13F4805F0BD1236C26
:1009600043F001032364002000E0002070BD00205C
:10097000FCE70020FAE70020F8E70368D86C70472E
:1009800030B482B00023019390F83C30012B00F08A
:10099000B780012380F83C300B68092B3ED90568ED
:1009A000EA689BB203EB43031E3B072404FA03F3FC
:1009B00022EA0303EB600568EA688C680B8803EBA6
:1009C00043031E3B04FA03F31343EB604B68062B0F
:1009D0003AD805686A6B03EB8303053B1F2404FACE
:1009E00003F322EA03036B6305686A6B4B6803EB4E
:1009F0008303053B0C8804FA03F313436B6302681B
:100A0000404B9A4250D002683E4B9A4255D0002348
:100A100080F83C30184602B030BC704705682A693F
:100A20009BB203EB4303072404FA03F322EA030314
:100A30002B6105682A698C680B8803EB430304FA71
:100A400003F313432B61C1E70C2B16D805682A6BFF
:100A500003EB8303233B1F2404FA03F322EA03037B
:100A60002B6305682A6B4B6803EB8303233B0C88DD
:100A700004FA03F313432B63C1E70568EA6A03EB47
:100A80008303413B1F2404FA03F322EA0303EB62CE
:100A90000568EA6A4B6803EB8303413B0C8804FA60
:100AA00003F31343EB62AAE70B68122BABD1164A90
:100AB000536843F480035360A5E70B68103B012B98
:100AC000A5D8114A536843F4000353600B68102BF8
:100AD0009DD10E4B1B6802F1467202F52E3202F2D6
:100AE0008332A2FB03239B0C03EB83035A00019286
:100AF00002E0019B013B0193019B002BF9D186E7AA
:100B0000022088E70020014000230140440000202B
:100B1000074AD36823F4E0631B041B0C000200F4B3
:100B2000E060184340F0BF6040F40030D060704790
:100B300000ED00E030B4174BDB68C3F30223C3F1D0
:100B40000704042C28BF04241D1D062D18D9033BBF
:100B50004FF0FF3505FA04F421EA0401994005FA43
:100B600003F322EA0303194300280BDB0901C9B28E
:100B700000F1604000F5614080F8001330BC704720
:100B80000023E5E700F00F000901C9B2024B195438
:100B9000F4E700BF00ED00E014ED00E000F01F02FC
:100BA000400901239340024A42F82030704700BFB9
:100BB00000E100E00138B0F1807F0AD2064B5860B6
:100BC000064AF02182F823100020986007221A605C
:100BD00070470120704700BF10E000E000ED00E02A
:100BE000042805D0054A136823F0040313607047F6
:100BF000024A136843F004031360704710E000E0FA
:100C000000230F2B00F2D780F0B482B039E0072226
:100C100000E00022B2403A430234674E46F82420F6
:100C2000664A1468EA4302EA04064F6817F4803FF4
:100C300001D045EA0406614C2660646802EA0406B5
:100C40004F6817F4003F01D045EA04065B4C66602C
:100C5000A46802EA04064F6817F4801F01D045EA31
:100C60000406564CA660E46822404E6816F4001F45
:100C700001D045EA0402514CE26001330F2B00F22F
:100C8000978001229A400C6804EA0205AA42F4D136
:100C90004C68022C01D0122C10D1DE08083650F816
:100CA00026C003F00704A7000F24BC402CEA040C64
:100CB0000C69BC4044EA0C0440F8264004685F001C
:100CC0000326BE40F64306EA040C4C6804F0030415
:100CD000BC4044EA0C0404604C6804F1FF3CBCF1E5
:100CE000010F03D9112C01D0122C10D1846806EA0F
:100CF000040CCC68BC4044EA0C048460446824EAD8
:100D000002024C68C4F300149C4014434460C2685F
:100D100016408A68BA403243C2604A6812F0805F67
:100D2000ABD000220192264A546C44F480445464AF
:100D3000526C02F480420192019A9C08A61C1E4A41
:100D400052F8267003F0030296000F22B24027EA01
:100D500002071C4A90423FF45CAF02F58062904269
:100D60001AD002F58062904218D002F5806290425B
:100D700016D002F58062904214D002F58062904253
:100D800012D002F58062904210D002F5806290424B
:100D90003FF43DAF08223DE701223BE7022239E75D
:100DA000032237E7042235E7052233E7062231E73D
:100DB00002B0F0BC7047704700380140003C014071
:100DC00000380240000002400369194201D10020AE
:100DD00070470120704712B9090481617047816131
:100DE000704743695940416170470000F8B5066893
:100DF000346A04F00F07C4F34343C4F30A14022B0C
:100E00002ED16CB307EB8702D3000344596C39B37E
:100E100005462246304602F055FDBA003A44D3005A
:100E20002B445A6C22445A64DA6C2244DA6406EB8E
:100E30004713D3F810150B4A0A408AB1D3F800259E
:100E400022F0804242F00042C3F80025BB00D919CD
:100E5000CA002A4492F8503083F0010382F85030DF
:100E6000F8BD00BF0000F81FF0B585B09DF8286000
:100E70009DF82C70BDF830C090F89042012C2AD01B
:100E80000546012085F89002880000EB010E4FEA2C
:100E9000CE042C4484F83830A4F840C084F83910CB
:100EA00084F83F7002F07F0E84F83AE04FEAD21ED9
:100EB00084F83BE00844C4002C4484F83C60CDF83E
:100EC00008C001970096286802F015FE002385F8F7
:100ED000903205B0F0BD0220FBE790F89032012B74
:100EE0000BD010B50446012380F89032006802F060
:100EF000BCFF002084F8900210BD0220704700283B
:100F000037D0F0B58BB00646032380F8913206F057
:100F1000FBFB306802F080FC344654F810CB6D4681
:100F20000FCC0FC50FCC0FC594E8030085E8030074
:100F3000371D97E80E00604602F02AFC0121306858
:100F400002F070FC344654F810CB6D460FCC0FC540
:100F50000FCC0FC594E8030085E8030097E80E0066
:100F6000604602F0E9FC012386F8913200200BB0C4
:100F7000F0BD01207047F8B59DF81870BDF82060ED
:100F80009DF824C08D000D44EC00044484F83B20FF
:100F900084F83F306FB901EB8105EC000444032570
:100FA00084F84250032B00F2B380DFE803F00AAA72
:100FB0003E7B01EB8105EC000444022584F842509D
:100FC000F0E7012F40F0A480002A40F0A18036B95C
:100FD00001EB8102D3000344012283F8512001EB8D
:100FE0008102D300034493F85130B3B901EB81027D
:100FF000D3000344002283F8422001EB8102D30096
:10100000034493F85C30022B00F0828001EB8102F4
:10101000D300034483F83DC07AE001EB8102D300A2
:101020000344022283F84220E7E722BB01EB81025E
:10103000D300034493F85130ABB901EB8102D300E4
:101040000344002283F8422001EB8102D3000344D1
:1010500093F85C30022B5BD001EB8102D300034498
:1010600083F83DC054E001EB8102D3000344022227
:1010700083F84220E8E701EB8102D300034493F8B0
:1010800050303BB901EB8102D3000344002283F8C6
:1010900042203DE001EB8102D3000344022283F8A9
:1010A000422035E0B2B901EB8102D300034493F84A
:1010B00051303BB901EB8102D3000344002283F895
:1010C000422025E001EB8102D3000344022283F891
:1010D00042201DE001EB8102D300034493F850301D
:1010E0003BB901EB8102D3000344002283F8422084
:1010F0000EE001EB8102D3000344022283F8422078
:1011000006E001EB8102D3000344002283F8422071
:101110008A005418E3000344079C5C649E64002426
:1011200083F85C40DC6483F8391083F85D40114437
:10113000CB0003F13801027C0144006802F04CFD51
:10114000F8BD30B583B005460468D4F84034019347
:10115000D4F840340093009B23F02E030093019BAE
:1011600013F0020F07D0019B13F0010F25D1009B54
:1011700043F002030093019B13F0080F10D0009B73
:1011800043F008030093019B13F0040F31D0AB69C7
:10119000022B19D0EB68032B26D0284606F0F6FA6E
:1011A000019B13F0200F03D0009B43F0200300931A
:1011B000009BC4F8403403B030BDA36923F0005352
:1011C000A36106F0E3FAD2E7019B03F4C023B3F571
:1011D000802F04D00121286802F024FCDDE70221E1
:1011E000286802F01FFCD8E74EF66022C4F80424F9
:1011F000D3E7D4F8403423F02E03C4F840342A68EF
:10120000936943F000539361CAE7F8B506460D466B
:10121000076807EB411707F5A064A36813F0040FF4
:1012200041D00423A360E36843F00203E360A368B2
:1012300013F4007F6DD1A36813F0010F00F08A80D2
:10124000336963B1AB005919CA003244916C226909
:10125000C2F31202891A2B44DA003244D164AA0084
:101260002A44D3003344012283F85D20002199658C
:10127000A26093F83F30002B57D0022B55D0032BA0
:101280005DD1D7F8003543F00053C7F8003505EBC2
:101290008502D3003344012283F85C20294630467E
:1012A00006F080FA4BE0A36813F0200F02D0202351
:1012B000A360BCE7A36813F0080F17D1A36813F469
:1012C000806FB4D0E36843F00203E360006802F08B
:1012D000CCFD1023A36005EB8502D3003344082224
:1012E00083F85D204FF48063A360A0E7E36843F0D8
:1012F0000203E36001EB8102D3000344052283F87B
:101300005D201023A3600823A360006802F0ADFDF8
:101310008DE7E36843F00203E3602946306802F09A
:10132000A4FD4FF40073A36013E0E36843F00203ED
:10133000E3602946306802F098FD1023A360AB00FB
:101340005919CA00324492F8503083F0010382F8F0
:101350005030F8BDA36813F0020F50D0E36823F0BB
:101360000203E36005EB8502D300334493F85D305C
:10137000012B20D0052B32D0062B01D0082B21D1F8
:10138000AA002A44D30033449A6D511C9965032A5C
:101390002DD9AA002A44D300334400229A6504229E
:1013A00083F85C20D7F8003523F0804343F00043F6
:1013B000C7F8003506E005EB8502D300334401226F
:1013C00083F85C200223A36005EB8502D30033443D
:1013D00093F85C202946304606F0E4F9B9E705EBBE
:1013E0008502D3003344052283F85C20EAE705EB4D
:1013F0008502D3003344022283F85C20D2E7A3683D
:1014000013F0800F26D1A36813F0100FA1D005EBC5
:101410008502D300334493F83F30032B32D0AB0026
:101420005919CA003244032182F85D101022A260CB
:101430001D4405FA01F31E4496F83F300BB1022B10
:1014400087D1D7F8003523F0804343F00043C7F835
:1014500000357EE7E36843F00203E360AB0059190F
:10146000CA003244916D013191652B44DA00324457
:10147000062382F85D302946306802F0F6FC8023AE
:10148000A36066E7E36843F00203E360294630683F
:1014900002F0EBFCC3E7F8B5046804EB411404F573
:1014A000A064A36813F0040F24D10E460546A36878
:1014B00013F0200F25D02023A36001EB8102D3007D
:1014C000034493F83D30012B1AD18F007A18D300D2
:1014D0000344042283F85D20E36843F00203E360E1
:1014E000006802F0C2FCB919C8002844022380F841
:1014F0005C3005E00423A360E36843F00203E3608B
:10150000F8BDA36813F0400F4CD1A36813F4007F1B
:101510005FD1A36813F0010F66D1A36813F0080F21
:1015200077D1A36813F0100F40F08480A36813F004
:10153000800F40F09580A36813F4806F40F0A18085
:10154000A36813F0020FDBD0E36823F00203E3602B
:1015500001EB8102D300034493F85D30012B00F0CE
:10156000A480032B00F0C480042B00F0C980052B5D
:1015700000F0D180062B02D0082B40F0A180B200F1
:101580003244D3002B449A6D511C9965032A40F2D2
:10159000CA80282303FB065300229A65042283F89D
:1015A0005C208DE08B005918CA000244042182F8A7
:1015B0005D103344DA00024400239365E36843F08E
:1015C0000203E3603146006802F04FFC4023A36051
:1015D00096E7E36843F00203E360006802F045FC2D
:1015E0004FF40073A3608BE78F007A18D300034495
:1015F00000229A65E36843F00203E360006802F0AA
:1016000034FC0123A360B919C800284480F85D3078
:1016100076E70823A360E36843F00203E360006811
:1016200002F023FC06EB8601C8002844052380F85D
:101630005D3065E78F007A18D300034400229A6575
:10164000E36843F00203E360006802F00EFCB9199E
:10165000C8002844032380F85D301023A3604FE7BF
:10166000E36843F00203E360006802F0FEFB06EB70
:101670008601CB002B44062283F85D208023A360E3
:101680003EE7E36843F00203E360006802F0EDFB2D
:101690001023A3604FF48063A36006EB8601CB00A8
:1016A0002B44082283F85D202AE78A000A44D300ED
:1016B0000344012283F85C2093F83F30022B0CD0C6
:1016C0000223A36006EB8602D3002B4493F85C2030
:1016D0003146284606F066F812E78A000A44D3002D
:1016E000034493F8512082F0010283F85120E7E788
:1016F00001EB8102D3000344022283F85C20DFE780
:101700008A000A44D3000344022283F85C200022AA
:1017100083F83D20D4E701EB8102D3000344052286
:1017200083F85C20CCE7282303FB0653022283F8CE
:101730005C20C5E7F8B504460568284602F0DAF8EB
:10174000012800D0F8BD206802F0D0F80028F9D0B8
:10175000206802F0CBF810F4001F03D023684FF488
:1017600000125A61206802F0C1F810F4801F03D003
:1017700023684FF480125A61206802F0B7F810F025
:10178000806F03D023684FF080625A61206802F0B6
:10179000ADF810F0020F02D0236802225A612068CF
:1017A00002F0A4F810F0005F25D1206802F09EF846
:1017B00010F0807F31D1206802F098F810F0080F07
:1017C0002FD1206802F092F810F0007F30D120680D
:1017D00002F08CF810F0100FB4D02268936923F057
:1017E000100393612046FFF701FB2268936943F0E1
:1017F00010039361A6E7D5F8403423F02E03C5F813
:101800004034204605F0C8FF0121206802F00AF9A3
:1018100023684FF000525A61C7E72046FFF791FC5A
:10182000C9E7204605F0ACFF236808225A61C8E7E3
:10183000206802F00BFB0746002604E0F1B22046C8
:10184000FFF729FE0136A368B3420FD90123B34045
:101850003B42F7D005EB4613D3F8003513F4004FA5
:10186000ECD0F1B22046FFF7D0FCEBE723684FF055
:1018700000725A61ABE738B590F89032012B0ED068
:101880000446012580F89052006801F0BFFF294608
:10189000206802F001F9002084F8900238BD02208F
:1018A000FCE790F89032012B0BD010B504460123D1
:1018B00080F89032006802F0F3FB002084F8900278
:1018C00010BD0220704708B5006802F0CBF808BDD3
:1018D00001EB8101CB00184490F85C00704701EBEC
:1018E0008101CB001844C06C704708B5006802F055
:1018F000FDF808BD08B5006802F0EFF808BD00006B
:10190000002800F0828010B5044690F83D30002B8E
:1019100041D0242384F83D302268136823F001036A
:10192000136000F07DFE3A4BA3FB00239B0C226862
:1019300053606168374A914232D80133226813629A
:101940006368344A934235D85B00B0FBF3F0C0F3D0
:101950000B03032B00D804202368D861E369216AB4
:1019600022680B4313602369E16822680B4393608C
:101970006369A16922680B43D3602268136843F04E
:101980000103136000202064202384F83D3020638D
:1019900084F83E0010BD80F83C3005F063FDB8E7E8
:1019A0004FF4967202FB03F31B4AA2FB03239B092D
:1019B0000133C3E7A16889B903EB4302B0FBF2F23C
:1019C000C2F30B02B2FA82F25209E2B991B903EB07
:1019D0004303B0FBF3F040F40040BDE703EB8302A8
:1019E00002EB8202B0FBF2F2C2F30B02B2FA82F215
:1019F0005209EAE703EB830303EB8303B0FBF3F045
:101A000040F44040A8E70120A6E70120704700BF4E
:101A100083DE1B43A0860100D34D6210704708B5DA
:101A2000436A9A1C426202681B88D360438D013B63
:101A30009BB24385438D9BB203B108BD02685368D6
:101A400023F0A0031B041B0C5360012380F84130DA
:101A5000FFF7E4FFF1E7704708B50368DA68C36A87
:101A6000991CC1621A80438E013B9BB24386438E10
:101A70009BB203B108BD0268536823F060031B04E6
:101A80001B0C5360012380F84130FFF7E4FFF1E7BE
:101A900070470000002800F0BB8070B504460225A6
:101AA00080F841505B4B436305F006FD2268D36923
:101AB00023F47B6323F00F03D36123681D62236843
:101AC000DD696369022B5BD0E368002B3ED02026E2
:101AD000A368202B00D87600012000F06BFE23695C
:101AE000B3F5007F34D0B0FBF6F000EB800043008C
:101AF0006269B3FBF2F30533474AA2FB0323DB0819
:101B000003F001029B1AC3F34F0311029A1EFD2A30
:101B100038D822690A43216813430B626268A168BE
:101B2000E068238B03439BB20B439BB213439BB2EE
:101B300043F400631D432368DD61236A012B2AD02F
:101B400000206064012384F8413070BD1026BFE797
:101B5000E36853B1B600B0FBF6F000EB8000430041
:101B60006269B3FBF2F30533C6E7F600B0FBF6F0AB
:101B700000EB800043006269B3FBF2F30533BBE77F
:101B80000021C3E7636C43F0100363642046FFF752
:101B90007FFF0120D9E7214B63632268204B9A42E3
:101BA0001ED04FF04022D36923F47B6323F00F0350
:101BB000D36122681A4B9A4214D04FF0402302227C
:101BC0001A622268164B9A420FD04FF04022D06919
:101BD0006168B1F5007F0AD0C1B94FF4807608E0A2
:101BE000104AE0E7A3F58063E9E70E4AEFE74FF418
:101BF0008076A168E568238B2B439BB20B439BB295
:101C0000334343F400630343D36199E70026F0E7CD
:101C100001207047291C0008CDCCCCCC451E000803
:101C2000003800400034004010B584B0044602681B
:101C30009368039390F84130DBB2042B06D094F8FC
:101C40004130DBB2032B2ED004B010BD039B13F048
:101C5000010F03D0536813F0400F21D1039B13F001
:101C6000400FECD023685A6812F0200FE7D05A6872
:101C700022F060021204120C5A60002301932368C0
:101C8000DA6801929B680193019B012384F841303B
:101C9000636C43F0020363642046FFF7F9FECEE76E
:101CA000FFF7DAFEDAE7039B13F0020F04D0236894
:101CB0005B6813F0800F1FD1039B13F0080FC3D094
:101CC00023685A6812F0200FBED05A6822F0A00292
:101CD0001204120C5A600023029323689B6802933B
:101CE000029B012384F84130636C43F00403636476
:101CF0002046FFF7CDFEA7E72046FFF790FEDBE783
:101D00007047000008B5E9B9436A9A1C426202684C
:101D10001B88D360438D013B9BB24385438D9BB2AF
:101D20004BB90268536823F0A0031B041B0C5360DB
:101D3000438E9BB203B108BD012380F84130FFF709
:101D4000DFFFF8E7436A9A1C42621A880168134B66
:101D500099421ED04FF04023DA60438D013B9BB285
:101D60004385438D9BB2002BE5D102680B4B9A4211
:101D700012D04FF04022536823F0A0035360438EEB
:101D80009BB2002BD7D1012380F84130FFF7B8FF79
:101D9000D1E7A3F58063DFE7014AECE700380040B4
:101DA0000034004008B5E9B90368DA68C36A991CD1
:101DB000C1621A80438E013B9BB24386438E9BB225
:101DC0004BB90268536823F060031B041B0C53607B
:101DD000438D9BB203B108BD012380F84130FFF76A
:101DE0008FFFF8E70268154B9A4222D04FF040234C
:101DF000DA68C36A991CC1621A80438E013B9BB2A8
:101E00004386438E9BB2002BE5D102680B4B9A426E
:101E100012D04FF04022536823F060035360438D8B
:101E20009BB2002BD7D1012380F84130FFF768FF28
:101E3000D1E7A3F58063DBE7014AECE70038004017
:101E40000034004010B584B0044603689A680392D9
:101E50007C4A93425DD04FF040218A680292DA6951
:101E600002F44072B2F5007F04D0DA6912F4407FC8
:101E700040F08180039A12F0020F03D05B6813F0E8
:101E8000800F48D1029B13F0010F09D022686D4BDF
:101E90009A4245D04FF040235B6813F0400F42D187
:101EA000029B13F0400F09D02268664B9A423FD044
:101EB0004FF040235A6812F0200F3CD1039B13F0DF
:101EC000080F24D023685A6812F0200F1FD05A68D8
:101ED00022F0A0021204120C5A602268594B9A4256
:101EE00047D04FF04022536823F060035360002333
:101EF000019323689B680193019B012384F841307F
:101F0000636C43F0040363642046FFF7C1FD04B033
:101F100010BD4D49A1E700212046FFF7F3FEB1E7D0
:101F2000A3F58063B8E701212046FFF73BFFB7E741
:101F3000A3F58063BEE75A6822F060025A60226807
:101F4000536823F0A0031B041B0C53600023009371
:101F50002368DA6800929B680093009B012384F851
:101F60004130636C43F0020363642046FFF790FD49
:101F7000A4E7354AB7E7029B13F0020F03D04B6882
:101F800013F0800F4FD1039B13F0010F04D023688F
:101F90005B6813F0400F4BD1039B13F0400F1ED032
:101FA00023685A6812F0200F19D05A6822F0600294
:101FB0001204120C5A602268224B9A423DD04FF014
:101FC0004022536823F0A0035360012384F841307A
:101FD000636C43F0020363642046FFF759FD029BE4
:101FE00013F0080F93D02268164B9A4227D04FF077
:101FF00040235A6812F0200F89D05A6822F0A002BC
:102000005A602268536823F060031B041B0C536062
:10201000012384F84130636C43F004036364204679
:10202000FFF736FD73E701212046FFF76BFEAAE7B5
:1020300000212046FFF7B6FEAEE7034AC1E7A3F54D
:102040008063D6E70038004000340040002800F0EC
:10205000BB8170B582B00446036813F0010F3BD01A
:10206000A74B9B6803F00C03042B2CD0A44B9B685C
:1020700003F00C03082B21D06368B3F5803F4FD0E9
:10208000B3F5A02F52D09E4B1A6822F480321A600A
:102090001A6822F480221A606368002B50D0FEF781
:1020A000B9FA0546964B1B6813F4003F14D1FEF7AE
:1020B000B1FA401B6428F5D903208AE1904B5B6894
:1020C00013F4800FD8D08E4B1B6813F4003F03D05D
:1020D0006368002B00F07A81236813F0020F55D05B
:1020E000874B9B6813F00C0F3ED0854B9B6803F029
:1020F0000C03082B33D0E368002B68D0814B0122FE
:102100001A60FEF787FA05467D4B1B6813F0020F35
:1021100054D1FEF77FFA401B0228F5D9032058E17D
:10212000774A136843F480331360B5E7744B1A6839
:1021300042F480221A601A6842F480321A60ABE7D7
:10214000FEF768FA05466E4B1B6813F4003FC3D0D8
:10215000FEF760FA401B6428F5D9032039E1684B8B
:102160005B6813F4800FC6D1654B1B6813F0020F38
:1021700004D0E368012B01D001202AE1604A1368F2
:1021800023F0F803216943EAC1031360236813F0C5
:10219000080F40D0636963B35B4B01221A60FEF7FE
:1021A00039FA0546564B5B6F13F0020F33D1FEF739
:1021B00031FA401B0228F5D903200AE1504A13687E
:1021C00023F0F803216943EAC1031360DEE74D4BB6
:1021D00000221A60FEF71EFA0546494B1B6813F0F1
:1021E000020FD3D0FEF716FA401B0228F5D90320C0
:1021F000EFE0454B00221A60FEF70CFA0546404B13
:102200005B6F13F0020F06D0FEF704FA401B0228A2
:10221000F5D90320DDE0236813F0040F79D0384BA3
:102220001B6C13F0805F33D100230193344B1A6C85
:1022300042F080521A641B6C03F080530193019B9F
:102240000125324B1B6813F4807F23D0A368012B38
:1022500034D0052B38D02A4B1A6F22F001021A67AE
:102260001A6F22F004021A67A368002B36D0FEF71B
:10227000D1F90646224B1B6F13F0020F48D1FEF72F
:10228000C9F9801B41F288339842F3D90320A0E0BA
:102290000025D6E71D4A136843F480731360FEF7E8
:1022A000B9F90646194B1B6813F4807FCED1FEF7AF
:1022B000B1F9801B0228F5D903208AE0104A136F78
:1022C00043F001031367CFE70D4B1A6F42F004028E
:1022D0001A671A6F42F001021A67C5E7FEF79AF90A
:1022E0000646074B1B6F13F0020F11D0FEF792F951
:1022F000801B41F288339842F3D9032069E000BF84
:102300000038024000004742800E47420070004003
:10231000E5B9A369002B5BD0304A926802F00C0249
:10232000082A58D0022B17D02D4B00221A60FEF736
:1023300071F90446294B1B6813F0007F42D0FEF769
:1023400069F9001B0228F5D9032042E0234A136CE7
:1023500023F080531364DCE7214B00221A60FEF760
:1023600059F905461D4B1B6813F0007F06D0FEF798
:1023700051F9401B0228F5D903202AE0E369226ABB
:102380001343626A43EA8213A26A5208013A43EA9B
:102390000243E26A43EA0263104A5360104B01228F
:1023A0001A60FEF737F904460C4B1B6813F0007FE8
:1023B00006D1FEF72FF9001B0228F5D9032008E00B
:1023C000002006E0002004E001207047012000E02A
:1023D000002002B070BD0120FBE700BF00380240C2
:1023E00060004742324B9B6803F00C03042B5CD027
:1023F000082B01D02F4870472DE9F04B2C4B5A6821
:1024000002F03F025B6813F4800F2BD0284B5B680F
:10241000C3F388131E4600275C010025E41A65EB10
:102420000705A90141EA9461A001001B61EB0501C8
:10243000CB0043EA5073C400A01943EB07014B02E1
:1024400043EAD0534402204619460023FDF7C0FE5C
:10245000174B5B68C3F3014301335B00B0FBF3F040
:10246000BDE8F08B124B5B68C3F388131E46002750
:102470005C010025E41A65EB0705A90141EA9461B6
:10248000A001001B61EB0501CB0043EA5073C400BF
:10249000A01943EB07018B0243EA905384022046C4
:1024A00019460023FDF794FED2E70348704700BFAA
:1024B000003802400024F40000127A00002800F0E6
:1024C0009D8070B504464F4B1B6803F00F038B4291
:1024D00009D2CBB24B4A1370136803F00F038B423F
:1024E00001D0012070BD236813F0020F17D013F044
:1024F000040F04D0444A936843F4E0539360236884
:1025000013F0080F04D0404A936843F4604393608B
:102510003D4A936823F0F003A068034393600D469F
:10252000236813F0010F32D06368012B21D09A1E6B
:10253000012A25D9344A126812F0020F60D03249BC
:102540008A6822F0030213438B60FEF763F80646A5
:102550002D4B9B6803F00C036268B3EB820F16D01F
:10256000FEF758F8801B41F288339842F0D90320D7
:10257000B8E7254A126812F4003FE0D10120B1E724
:10258000214A126812F0007FD9D10120AAE71D4B21
:102590001B6803F00F03AB4209D9EAB2194B1A705A
:1025A0001B6803F00F03AB4201D001209AE72368B8
:1025B00013F0040F06D0144A936823F4E053E16843
:1025C0000B439360236813F0080F07D00E4A9368FB
:1025D00023F46043216943EAC1039360FFF702FFDC
:1025E000094B9B68C3F30313084AD35CD840084BDC
:1025F00018600F20FDF7C4FF002073E7012070472B
:1026000001206FE7003C024000380240A48C000823
:1026100044000020014B1868704700BF44000020B0
:1026200008B5FFF7F7FF044B9B68C3F38223034A07
:10263000D35CD84008BD00BF00380240B48C00080D
:1026400008B5FFF7E7FF044B9B68C3F34233034A27
:10265000D35CD84008BD00BF00380240B48C0008ED
:1026600030B583B00446036813F0050F06D1236824
:1026700013F0020F2ED1002003B030BD494B0022D1
:102680001A60FDF7C7FF0546474B1B6813F0006F44
:1026900006D0FDF7BFFF401B0228F5D90320EBE76A
:1026A0006268A3681B0743EA82133F4AC2F884307A
:1026B0003C4B01221A60FDF7ADFF05463A4B1B6803
:1026C00013F0006FD3D1FDF7A5FF401B0228F5D909
:1026D0000320D1E700230193334B1A6C42F0805260
:1026E0001A641B6C03F080530193019B2F4A1368FB
:1026F00043F480731360FDF78DFF05462B4B1B6879
:1027000013F4807F06D1FDF785FF401B0228F5D921
:102710000320B1E7244B1B6F13F4407312D0E2681F
:1027200002F440729A420DD01F4B1A6F22F440728D
:102730001F4901200860002008601A671B6F13F012
:10274000010F13D1E36803F44072B2F5407F1ED04D
:10275000154A936823F4F813936013490B6FE268EA
:10276000C2F30B0213430B67002085E7FDF752FF0E
:1027700005460D4B1B6F13F0020FE3D1FDF74AFF27
:10278000401B41F288339842F3D9032074E706498D
:102790008A6822F4F81223F0704323F44073134341
:1027A0008B60DAE768004742003802400070004062
:1027B000400E474201282AD1174B9B6813F40003AF
:1027C00003D0012B25D115487047134B5B6813F4D8
:1027D000800F14D0104B5B6803F03F031048B0FB30
:1027E000F3F00D4AD2F88430C3F3881300FB03F0F2
:1027F000D2F88430C3F30273B0FBF3F07047064B9A
:102800005B6803F03F030748B0FBF3F0E9E7002003
:1028100070470020704700BF003802400080BB00B6
:1028200000127A000024F40038B504460268D36828
:1028300023F0A003D360FDF7EDFE05462368DB68B7
:1028400013F0200F07D1FDF7E5FE401BB0F57A7FAE
:10285000F4D9032000E0002038BD38B50368DA68F9
:1028600012F0400F01D0002038BD04464FF0FF3277
:10287000DA60FDF7CFFE05462368DB6813F0400FF2
:1028800007D1FDF7C7FE401BB0F57A7FF4D90320CE
:10289000EAE70020E8E738B500285CD00446437F2B
:1028A000002B40D0022363772368CA225A62236830
:1028B00053225A622046FFF7D0FF0546002836D142
:1028C0002268936823F4E00323F0400393602168B7
:1028D0008A686368206903436069034313438B601C
:1028E0002368E2681A6122681369A16843EA014318
:1028F00013612268D36823F08003D36023689B6848
:1029000013F0200F1BD02268136C23F48023136470
:102910002268136CA1690B4313642368FF225A6277
:102920000123637709E0037704F0FAFDBAE723682F
:10293000FF225A62042363770125284638BD2046CA
:10294000FFF772FF0028DED02368FF225A620423BB
:1029500063770125F1E70125EFE7002302E001336A
:102960000A38C0B20928FAD81B01DBB218437047F5
:1029700070B5037F012B66D00123037702234377D1
:102980003AB94B7813F0100F03D003F0EF030A337A
:102990004B700E460446002A32D1C878FFF7DDFF9F
:1029A00005047078FFF7D9FF45EA0025B078FFF7F6
:1029B000D4FF2843357840EA45352368CA225A6255
:1029C000236853225A622046FFF747FF064610BB92
:1029D000236825F07F4525F0C0055D602268D36837
:1029E00023F08003D36023689B6813F0200F1CD072
:1029F0002368FF225A62012363770023237712E0C2
:102A0000CD784878000240EA05408D7828430D785B
:102A100040EA4535D1E72368FF225A6204236377F1
:102A2000002323770126304670BD2046FFF7FCFEC9
:102A30000028DDD02368FF225A6204236377002335
:102A400023770126EFE70226EDE7F8B5037F012B98
:102A500078D00D4604460123037702234377002AEA
:102A600046D103689B6813F0400F01D10023CB705F
:102A70002878FFF772FF06046878FFF76EFF46EAD2
:102A80000026A878FFF769FF3043EE7840EA064653
:102A90002368CA225A62236853225A622046FFF7EB
:102AA000DCFE0746002835D1236806F07F3626F085
:102AB000FE461E602268936823F480239360216899
:102AC0008B68EA682869024313438B602268D368E5
:102AD00023F08003D36023689B6813F0200F23D07A
:102AE0002368FF225A62012363770023237719E0CA
:102AF00003689B6813F0400F01D10023CB702B7843
:102B00006878000240EA0340AB781843EE7840EA68
:102B10000646BDE72368FF225A6204236377002339
:102B2000237701273846F8BD2046FFF77DFE0028B1
:102B3000D6D02368FF225A620423637700232377C9
:102B40000127EFE70227EDE700283BD010B5044648
:102B50000023836290F85130002B2ED0022384F89A
:102B600051302268136823F0400313606368A26841
:102B70001343E26813432269134362691343A26952
:102B800002F400721343E2691343226A1343A16AF9
:102B900022680B431360638B03F00403616A2268AD
:102BA0000B4353602268D36923F40063D361002090
:102BB0006065012384F8513010BD80F8503004F076
:102BC000BDFCCBE70120704770B4036A23F001031A
:102BD0000362036A4268846924F073040D6845EA5D
:102BE000040623F002048B6823430C4DA84202D054
:102BF0000B4CA0420BD123F00803CD682B4323F0EC
:102C0000040322F440724D6915438A692A434260E5
:102C100086614A684263036270BC704700000140ED
:102C20000004014030B4036A23F480730362036A32
:102C30004268C46924F073040D682C4323F40073C4
:102C40008D6843EA05230E4DA84203D005F5806543
:102C5000A8420ED123F40063CD6843EA052323F490
:102C6000806322F440524D6942EA05128D6942EABE
:102C700005124260C4614A68C263036230BC704797
:102C80000000014030B4036A23F480530362036AF6
:102C90004468C26922F4E6420D6842EA052223F440
:102CA00000538D6843EA0533094DA84203D005F56A
:102CB0008065A84204D124F480444D6944EA851417
:102CC0004460C2614A680264036230BC704700BF5E
:102CD0000000014010B4036A046A24F00104046295
:102CE000846924F0F00444EA021223F00A030B433F
:102CF000826103625DF8044B704710B4036A23F0ED
:102D0000100303628469036A24F4704444EA0232C3
:102D100023F0A00343EA0113826103625DF8044BD0
:102D20007047836823F0700341F007011943816005
:102D3000704710B4846824F47F4442EA03230B43B1
:102D4000234383605DF8044B7047022380F83930D9
:102D50000268136843F001031360012380F83930DF
:102D600000207047704790F83830012B7DD010B5A7
:102D70000446012380F83830022380F83930026895
:102D8000936823F47F4323F0770393600B68402B11
:102D900057D010D9702B3ED01FD8502B47D0602B66
:102DA00032D1CA6849680068FFF7A7FF6021206830
:102DB000FFF7B7FF28E0102B4DD008D9202B4FD0BC
:102DC000302B21D130210068FFF7ABFF1CE0DBB9CD
:102DD00000210068FFF7A5FF16E0B3F5805F0ED075
:102DE000B3F5005F10D1CB684A6889680068FFF7C7
:102DF000A0FF2268936843F48043936004E0026874
:102E0000936823F007039360012384F8393000208E
:102E100084F8380010BDCB684A6889680068FFF7FD
:102E200088FF2268936843F077039360ECE7CA68F1
:102E300049680068FFF74EFF50212068FFF771FFD7
:102E4000E2E7CA6849680068FFF744FF402120684C
:102E5000FFF767FFD8E710210068FFF762FFD3E7AD
:102E600020210068FFF75DFFCEE7022070470000D9
:102E700003682E4A904212D0B0F1804F0FD0A2F5D5
:102E80007C4290420BD002F58062904207D002F55E
:102E90008062904203D002F57842904203D123F041
:102EA00070034A681343214A90422AD0B0F1804F00
:102EB00027D0A2F57C42904223D002F58062904256
:102EC0001FD002F5806290421BD002F578429042FA
:102ED00017D002F57052904213D002F580629042F2
:102EE0000FD002F5806290420BD0A2F5983290424A
:102EF00007D002F58062904203D002F580629042D2
:102F000003D123F44073CA68134303608B68C36220
:102F10000B688362054B984203D003F580639842A7
:102F200001D10B6903630123436170470000014035
:102F3000A8B110B5044690F839305BB1022384F88B
:102F40003930211D2068FFF793FF012384F83930C1
:102F5000002010BD80F8383004F018FBEEE70120A7
:102F60007047A8B110B5044690F839305BB1022320
:102F700084F83930211D2068FFF77AFF012384F897
:102F80003930002010BD80F83830FFF7EBFEEEE757
:102F90000120704730B4036A23F010030362036A10
:102FA0004468826922F4E6420D6842EA052223F071
:102FB00020038D6843EA05130E4DA84203D005F5A2
:102FC0008065A8420ED123F08003CD6843EA051343
:102FD00023F0400324F440644D6944EA85048D697C
:102FE00044EA8504446082614A688263036230BCBB
:102FF000704700BF0000014038B590F83830012B11
:1030000066D00D460446012380F83830022380F84C
:1030100039300C2A1AD8DFE802F0071919192019DB
:1030200019193419191947000068FFF7CDFD2268F6
:10303000936943F0080393612268936923F00403C2
:1030400093612268936929690B439361012384F892
:103050003930002084F8380038BD0068FFF79AFF47
:103060002268936943F4006393612268936923F4AF
:103070008063936122689369296943EA012393611C
:10308000E4E70068FFF7CEFD2268D36943F0080348
:10309000D3612268D36923F00403D3612268D36922
:1030A00029690B43D361D1E70068FFF7EBFD226884
:1030B000D36943F40063D3612268D36923F4806346
:1030C000D3612268D369296943EA0123D361BDE74B
:1030D0000220C1E710B4012303FA01F4036A23EAD2
:1030E00004030362036A8A40134303625DF8044BDE
:1030F0007047000010B5044601220068FFF7EAFFA0
:103100002368094A934203D002F58062934203D1B7
:103110005A6C42F400425A642268136843F0010377
:103120001360002010BD00BF0000014090F838304F
:10313000012B22D030B4012280F83820022380F8FD
:1031400039300468636823F070036360046863685F
:103150000D682B4363600468A36823F08003A360B9
:103160000468A36849680B43A36080F839200023F2
:1031700080F83830184630BC70470220704790F80D
:103180003830012B25D0012380F83830CB6823F468
:1031900040738A68134323F480634A68134323F41B
:1031A00000630A68134323F480530A69134323F42A
:1031B00000534A69134323F480438A69134323F479
:1031C0000043134302685364002380F838301846E4
:1031D00070470220704700002DE9F843044601685B
:1031E0000A6922F44052C36813430B610168CA683C
:1031F00022F4164222F00C028368006903436069DE
:103200000343E06903431343CB6021684A6922F416
:103210004072A36913434B61E369B3F5004F60D07B
:103220002368B84A934200F0148102F58062934209
:1032300000F00F81FFF7F4F900EB800000EB800055
:103240006568AD00B0FBF5F5AF4FA7FB05356D091F
:103250002E01FFF7E5F900EB800000EB80006568C8
:10326000AD00B0FBF5F9FFF7DBF900EB800000EBF8
:1032700080006568AD00B0FBF5F5A7FB05356D096D
:103280004FF0640808FB15952D013235A7FB053575
:103290006D0905F0F0053544FFF7C2F900EB800039
:1032A00000EB80006668B600B0FBF6F6FFF7B8F9F1
:1032B00000EB800000EB800063689B00B0FBF3F044
:1032C000A7FB0030400908FB10684FEA081808F116
:1032D0003208A7FB0837C7F3431723682F449F60C2
:1032E0000DE12368874A93425BD002F580629342E6
:1032F00057D0FFF795F900EB800000EB8000656880
:103300006D00B0FBF5F5804FA7FB05356D092E016B
:10331000FFF786F900EB800000EB800065686D0028
:10332000B0FBF5F9FFF77CF900EB800000EB8000C3
:1033300065686D00B0FBF5F5A7FB05356D094FF02D
:10334000640808FB1595ED003235A7FB05356D09BE
:103350006D0005F4F8753544FFF762F900EB800065
:1033600000EB800066687600B0FBF6F6FFF758F9D0
:1033700000EB800000EB800063685B00B0FBF3F3C0
:10338000A7FB03235B0908FB13684FEAC80808F191
:103390003208A7FB0837C7F3421723682F449F6002
:1033A000ADE0FFF74DF900EB800000EB80006568B1
:1033B0006D00B0FBF5F5544FA7FB05356D092E01E7
:1033C000FFF73EF900EB800000EB800065686D00C0
:1033D000B0FBF5F9FFF734F900EB800000EB80005B
:1033E00065686D00B0FBF5F5A7FB05356D094FF07D
:1033F000640808FB1595ED003235A7FB05356D090E
:103400006D0005F4F8753544FFF71AF900EB8000FC
:1034100000EB800066687600B0FBF6F6FFF710F967
:1034200000EB800000EB800063685B00B0FBF3F30F
:10343000A7FB03235B0908FB13684FEAC80808F1E0
:103440003208A7FB0837C7F3421723682F449F6051
:1034500055E0FFF7F5F800EB800000EB80006568B1
:10346000AD00B0FBF5F5284FA7FB05356D092E0122
:10347000FFF7E6F800EB800000EB80006568AD0028
:10348000B0FBF5F9FFF7DCF800EB800000EB800003
:103490006568AD00B0FBF5F5A7FB05356D094FF08C
:1034A000640808FB15952D013235A7FB05356D091C
:1034B00005F0F0053544FFF7C3F800EB800000EBA2
:1034C00080006668B600B0FBF6F6FFF7B9F800EBCF
:1034D000800000EB800063689B00B0FBF3F0A7FB6B
:1034E0000030400908FB10684FEA081808F132085C
:1034F000A7FB0837C7F3431723682F449F60BDE835
:10350000F88300BF001001401F85EB512DE9F04109
:1035100005460F4616469846069C2B681B6837EAF8
:1035200003030CBF01230023B3421DD1B4F1FF3FBD
:10353000F3D02CB1FDF76EF8A0EB0800A042ECD957
:103540002A68D36823F4D073D3602A68536923F0C0
:1035500001035361202385F8393085F83A30002380
:1035600085F83830032000E00020BDE8F08158B332
:1035700010B5044690F839300BB3242384F8393061
:103580002268D36823F40053D3602046FFF724FE5B
:103590002268136923F4904313612268536923F06E
:1035A0002A0353612268D36843F40053D360002098
:1035B000E063202384F8393084F83A3010BD80F875
:1035C000383004F017F8D8E7012070472DE9F041B2
:1035D00082B01E4690F83930DBB2202B55D104461C
:1035E0000D469046002955D0002A55D090F8383025
:1035F000012B53D0012380F838300023C3632123EB
:1036000080F83930FDF706F80746A4F82480A4F8BE
:10361000268010E000963B46002280212046FFF7DE
:1036200075FF00283CD12B882268C3F30803536040
:103630002369C3B90235E38C9BB2B3B1E38C013B80
:103640009BB2E384A368B3F5805FE3D000963B466A
:10365000002280212046FFF759FF18BB2A782368F3
:103660005A600135E7E70135E5E700963B46002261
:1036700040212046FFF74AFF0346A8B9202284F8DC
:103680003920002284F8382000E00223184602B0D6
:10369000BDE8F0810123F9E70123F7E70223F5E70D
:1036A0000323F3E70323F1E70323EFE72DE9F041D9
:1036B00082B01E4690F83A30DBB2202B5AD1044635
:1036C0000D469046002959D0002A59D090F838303C
:1036D000012B57D0012380F838300023C363222305
:1036E00080F83A30FCF796FF0746A4F82C80A4F83F
:1036F0002E801DE000963B46002220212046FFF749
:1037000005FF002840D1236933B923685B68C3F300
:10371000080325F8023B0BE023685B68DBB225F861
:10372000013B05E023685B6803F07F032B700135E4
:10373000E38D9BB2BBB1E38D013B9BB2E385A368F4
:10374000B3F5805FD6D000963B460022202120466C
:10375000FFF7DCFED0B92369002BE3D123685B6857
:103760002B700135E4E7202384F83A30002084F8F8
:10377000380000E0022002B0BDE8F0810120FAE745
:103780000120F8E70220F6E70320F4E70320F2E740
:1037900084B010B5044603A880E80E00089B012BF6
:1037A00020D1A36B23F48033A363E36823F4840361
:1037B00023F04003E360E36823F44013E3600F9BCE
:1037C000012B0AD0204600F099F8069B012B14D05B
:1037D0000020BDE8104004B07047E36843F4801354
:1037E000E360EFE7E36843F04003E360204600F066
:1037F00085F84FF48033A363E7E7A36843F006033B
:10380000A360A36843F02003A360E1E7836843F06B
:103810000103836000207047836823F00103836005
:103820000020704708B5C36823F0C043C360012976
:1038300009D019B9C36843F08043C3603220FCF754
:10384000EFFE002008BDC36843F00053C360F5E7F6
:10385000890141F02001016100230133054A9342AF
:1038600005D8026912F0200FF7D10020704703201D
:10387000704700BF400D0300102303610023013394
:10388000054A934205D8026912F0100FF7D10020C3
:1038900070470320704700BF400D030070B49DF8CF
:1038A0000C4064B903339D0807E000EB023303F5D5
:1038B000805351F8046B1E600134AC42F5D30020F4
:1038C00070BC704703329208002393420CD210B4AC
:1038D00000F58054246841F8044B01339342F7D338
:1038E00008465DF8044B7047084670474269806996
:1038F00010407047406900F0010070470023013319
:103900000C4A934211D80269002AF8DA036943F09D
:103910000103036100230133064A934207D8026979
:1039200012F0010FF7D100207047032070470320E9
:10393000704700BF400D030084B038B5044605A8A9
:1039400080E80E0025460023C4F8003EA36B23F454
:103950008023A363A36B23F40023A363A36B43F42B
:103960000013A363079B032B0ED0D4F8003423F07D
:103970000403C4F8003410212046FFF769FF2046F5
:10398000FFF77AFF002213E0B4F1A04FEDD0D4F896
:10399000003443F00403C4F80034ECE705EB4213B1
:1039A0004FF0FF31C3F808150021C3F80C150132A0
:1039B000069B9342F2D80121204600F06DF8C82002
:1039C000FCF72EFE0023A3614FF0FF336361B4F1D7
:1039D000A04F17D04FF40073636203F18073A362AA
:1039E0000D4BC4F80031089B1BB9A36943F01003C9
:1039F000A361A269094B1343A3610020BDE83840CD
:103A000004B070478023636203F5C003A362044BD4
:103A1000C4F80031E7E700BF0003E000080020A37E
:103A2000E000400010B400F58064D0F8003423F0CA
:103A30000303C0F80034D0F8003401F0030213434C
:103A4000C0F80034012905D0022907D000205DF814
:103A5000044B70474BF680336360F7E741F27073B5
:103A60006360F3E710B582B00446D0F840340193A8
:103A7000019B23F02E030193019B43F48073C0F854
:103A800040340A20FCF7CCFD019B23F48073C4F87A
:103A90004034002002B010BD82B0D0F84034019311
:103AA000019B23F02E030193019B13F4805F01D14E
:103AB00001290CD0019B13F4805F05D021B9019B33
:103AC00023F48053C0F84034002002B07047019BBB
:103AD00043F48053C0F84034ECE782B0D0F840346F
:103AE00001930198C0F3414002B0704700F5806037
:103AF000806880B27047F0B49DF8144000EB411527
:103B000005F5A0664FF0FF37B760032C1CD8DFE83F
:103B100004F0024D021540F29D47F76012F0800F4D
:103B200007D1B0F1A04F0FD0F76847F06007F760FA
:103B30000AE0F76847F48077F76005E040F29D6798
:103B4000F76012F0800F2CD1D0F81864012707FA23
:103B500001F13143C0F81814816941F000718161AD
:103B60009B0503F0FE53D10201F4F0410B4352B226
:103B700002F4004213439DF81020022A21D00022B3
:103B80001343A20402F440221343BDF81820C2F3E9
:103B90000A021343C5F80035032C15D00020F0BCF1
:103BA0007047F76847F48077F760CDE740F2252744
:103BB000F76012F0800FC7D0F76847F4C077F7605E
:103BC000C2E74FF40032DBE7D5F8003543F000538D
:103BD000C5F80035E2E7000080B58AB002AFF860B2
:103BE000B9601346FB7100237B7700237B8300239E
:103BF000FB834FF480733B8300237B61FB68B3F14D
:103C0000A04F2AD0BB681B79002B26D1FB79002B53
:103C10000BD1BB685B79012B07D1BB685B78194678
:103C2000F86800F003FA002309E1FB79012B14D1B5
:103C3000BB685B785A01FB68134403F5A063DB683B
:103C4000BA6852785101FA680A4402F5A06223F07A
:103C50006003D360BB6800225A71BB681B69002BEC
:103C600019D0BB681B69BA6812891344013BBA6852
:103C70001289B3FBF2F3FB83FA8B3B8B9A420CD98C
:103C80003B8BFB83FB8BBA68128902FB03F31A465A
:103C9000BB681A6101E00123FB83BB68DB78002B62
:103CA00007D0FB8BBA68128902FB03F31A46BB6884
:103CB0001A61BB681B69C3F31202FB8BDB04194654
:103CC000614B0B401A43BB689B7A5B0703F0C04310
:103CD000B96849784801F968014401F5A0611343C6
:103CE0000B61FB79002B0AD0BB68D968BB685B7895
:103CF0005A01FB68134403F5A0630A465A61FB6846
:103D000003F580639B6803F00103002B0CBF0123C4
:103D10000023DBB27B77BB685B785A01FB681344F6
:103D200003F5A0631B68BA6852785101FA680A4427
:103D300002F5A06223F000531360BB685B785A0160
:103D4000FB68134403F5A0631B687A7F5207104693
:103D5000BA6852785101FA680A4402F5A062034336
:103D60001360BB685B785A01FB68134403F5A063DA
:103D70001B687B617B6923F080437B617B6943F037
:103D800000437B61BB685B785A01FB68134403F511
:103D9000A0631A467B691360FB79002B4ED1BB6888
:103DA000DB78002B4AD1BB681B69002B46D0BB686F
:103DB000DB79032B30D801A252F823F0CD3D000867
:103DC000F13D0008CD3D0008F13D0008BB681B69CE
:103DD00003339B087B837A8BFB68DB6A9BB29A4236
:103DE0001CD9FB689B6943F02002FB689A6115E0CF
:103DF000BB681B6903339B087B837A8BFB6803F5E5
:103E000080631B699BB29A420AD9FB689B6943F0A5
:103E10008062FB689A6103E000BF02E000BF00E03F
:103E200000BFBB68D968BB685A78BB681B6998B289
:103E3000002300930346F868FFF730FD002318467F
:103E40002037BD4680BD00BF0000F81F80B483B09E
:103E500000AF78607B6803F580635B699BB21846AE
:103E60000C37BD465DF8047B704780B485B000AF69
:103E700078600B46FB700023FB60FB785A017B687F
:103E8000134403F5A0631B689B0C03F00303002B92
:103E90000BD0FB785A017B68134403F5A0631B68C1
:103EA0009B0C03F00303022B5CD1FB785A017B6867
:103EB000134403F5A0631B68FA7851017A680A4439
:103EC00002F5A06243F0804313607B68DB6A03F471
:103ED0007F03002B33D1FB785A017B68134403F531
:103EE000A0631B68FA7851017A680A4402F5A0625F
:103EF00023F000431360FB785A017B68134403F5F9
:103F0000A0631B68FA7851017A680A4402F5A0623E
:103F100043F000431360FB680133FB60FB68B3F5BB
:103F20007A7F1DD8FB785A017B68134403F5A063A0
:103F30001B6803F00043B3F1004FECD06FE0FB7857
:103F40005A017B68134403F5A0631B68FA7851019A
:103F50007A680A4402F5A06243F0004313605EE011
:103F600000BF5CE0FB785A017B68134403F5A06353
:103F70001B68FA7851017A680A4402F5A06243F09E
:103F8000804313607B6803F580631B699BB2002B41
:103F900033D1FB785A017B68134403F5A0631B6897
:103FA000FA7851017A680A4402F5A06223F00043CE
:103FB0001360FB785A017B68134403F5A0631B6808
:103FC000FA7851017A680A4402F5A06243F000438E
:103FD0001360FB680133FB60FB68B3F57A7F1DD883
:103FE000FB785A017B68134403F5A0631B6803F058
:103FF0000043B3F1004FECD011E0FB785A017B682D
:10400000134403F5A0631B68FA7851017A680A44E7
:1040100002F5A06243F00043136000E000BF0023FC
:1040200018461437BD465DF8047B704780B485B0F0
:1040300000AF78600B46FB700123FB730023BB606D
:10404000FB7BDB041A46154B1340FA7851017A6862
:104050000A4402F5A06243F000431361FB785A0161
:104060007B68134403F5A0631B68BB60BB6823F047
:104070008043BB60BB6843F00043BB60FB785A01E0
:104080007B68134403F5A0631A46BB6813600023E2
:1040900018461437BD465DF8047B70470000F81FD2
:1040A00080B586B000AF786000233B617868FFF789
:1040B000B3FB10217868FFF7CBFB7868FFF7DCFBD8
:1040C0000023FB751FE0FB7D5A017B68134403F559
:1040D000A0631B68FB60FB6843F08043FB60FB68E8
:1040E00023F00043FB60FB6823F40043FB60FB7D8F
:1040F0005A017B68134403F5A0631A46FB681360FA
:10410000FB7D0133FB75FB7D0F2BDCD90023FB7599
:1041100034E0FB7D5A017B68134403F5A0631B6800
:10412000FB60FB6843F08043FB60FB6843F00043A7
:10413000FB60FB6823F40043FB60FB7D5A017B6856
:10414000134403F5A0631A46FB6813603B6901330F
:104150003B613B69B3F57A7F0CD8FB7D5A017B68E4
:10416000134403F5A0631B6803F00043B3F1004F51
:10417000ECD000E000BFFB7D0133FB75FB7D0F2B16
:10418000C7D97B6803F580631A464FF0FF3353614C
:104190007B684FF0FF325A617868FFF737FB0023E6
:1041A00018461837BD4680BD0020704708B521224B
:1041B0000274202242740022428282820722C2823A
:1041C00000F0E2FE08BD08B5A1220274212242746B
:1041D0000022428282820722C28200F0D5FE08BD00
:1041E00038B50446D0F87433D9694031FFF7EBFF96
:1041F000054620B9D4F8C433022120469847284602
:1042000038BD38B50546D0F87433DC69217879B902
:10421000217BB1B9617BF1B9D5F87433D86928B184
:1042200003F008FCD5F874330022DA61002038BDB1
:1042300000F0EBFF2178284600F0FEFF00232370FA
:10424000E6E7284600F0E1FF217B284600F0F4FF76
:1042500000232373DEE7284600F0D7FF617B284662
:1042600000F0EAFF00236373D6E770B584B004461C
:1042700001230222114600F0ECFAFF2800F0A18091
:1042800006460146204600F0DAFAD4F8745350206E
:1042900003F0C8FBE861D4F87433DD691A2303FB2B
:1042A000064393F8483313F0800F72D169782046A3
:1042B00000F0B0FF0146287094F81C336A786889D2
:1042C00002900320019094F81D030090204600F016
:1042D0008CFF00222978204603F02CFB00231A468D
:1042E0000A21204600F0B5FAFF286CD01A2303FB00
:1042F000004393F8483313F0800F52D1AB731A2365
:1043000003FB0043B3F84A332B831A2303FB004318
:1043100093F8503313F0800F4BD1AB731A2303FB88
:104320000040B0F852332B83A97B204600F072FF87
:104330006873E97B204600F06DFF287394F81C3306
:10434000AA7B697B288B02900226019694F81D03B4
:104350000090204600F049FF94F81C33EA7B297B4B
:10436000688B0290019694F81D030090204600F09F
:104370003CFF002685F84C603246697B204603F0FE
:10438000D9FA3246297B204603F0D4FA304604B0ED
:1043900070BD6B701A2303FB0646B6F84A336B8177
:1043A00084E7EB731A2303FB0043B3F84A336B83B0
:1043B000ABE7EB731A2303FB0040B0F852336B8377
:1043C000B2E70220E3E70220E1E7704730B583B0AF
:1043D0000546D0F87433DC6994F84D30012B03D0D6
:1043E000022B19D003B030BD606A228B90420AD9EB
:1043F000637BE16901200090284600F0BDFE0223A6
:1044000084F84D30EEE7637BE1690122009282B2CD
:10441000284600F0B1FEF2E7617B03F077FA01284D
:104420000BD00228DED1012384F84D300022042174
:10443000D5F8C80300F046FFD4E7636A228B9342A5
:1044400010D99B1A6362E3691A44E261636A63B13B
:10445000012384F84D3000220421D5F8C80300F070
:1044600031FFBFE700236362F0E7002384F84D309B
:104470002846FFF7AAFFEEE7704738B50546D0F8A3
:104480007433DC6994F84E30032B02D0042B09D02E
:1044900038BD237B628B216A00F084FE042384F8FC
:1044A0004E30F5E7217B03F031FA0128F0D1217B72
:1044B000284603F0E3F980B2A36A83420BD0628BF3
:1044C000824208D21B1AA362236A18442062032383
:1044D00084F84E3005E0002384F84E302846FFF77C
:1044E000CBFF00220421D5F8C80300F0EBFECFE794
:1044F000704738B50546D0F87433DC6994F84C3011
:10450000042B04D8DFE803F04C05163C43000123DC
:1045100047E0A16CFFF74AFE034630B1012840D0C6
:10452000042384F84C3001233BE0022384F84C3010
:10453000012336E004F14001FFF745FE0346C0B910
:10454000002384F84C30636C23F07F42A16C4B68ED
:1045500023F07F439A4201D0012322E0226C0B68B2
:104560009A4201D001231CE02846FFF7C1FF012336
:1045700017E0012815D0042384F84C30012310E003
:10458000FFF724FF2846FFF778FF012309E0002109
:1045900000F0A9FD38B9002384F84C30012300E075
:1045A0000023184638BD0123FBE7002306E003F192
:1045B000DE0200EB82020021516001330E2BF6D99E
:1045C000002304E0C218002182F81C110133B3F566
:1045D000007FF7D300230370437001228270C0F87C
:1045E000B833027640218171437680F81C3380F81D
:1045F0001D231846704708B50378DBB20A2B00D09C
:1046000008BDD0F87433002BFAD09B699847F7E7C0
:1046100070B584B004464378072B00F2C080DFE811
:1046200003F0042C365F687291A8082100F0EFFCBB
:1046300018B10125284604B070BD94F82723A27153
:104640000125657094F81C332179029200260196A9
:1046500094F81D2300928022204600F0C6FD94F8B5
:104660001C336179A2790292019694F81D2300927D
:104670003246204600F0B9FDDCE7122100F0C7FC0D
:10468000002840F08E80022363700125D2E70121CB
:1046900000F007FD08B10125CCE7022003F063F923
:1046A000012584F81C53032363702179A3790293B5
:1046B0000026019694F81D3300932B468022204655
:1046C00000F093FD94F81C336179A279029201966F
:1046D00094F81D2300923246204600F086FDA9E79B
:1046E000092100F0ADFC00285DD104236370012591
:1046F000A0E7B0F8341300F0A3FC002855D105233F
:104700006370012596E790F82E1389B1FF2300F519
:104710008E7200F0AEFC08B101258BE706236370B2
:1047200000220521D4F8C80300F0CCFD012581E763
:104730000623437000220521D0F8C80300F0C2FD13
:10474000012577E790F82F1349B1FF2300F58E720A
:1047500000F08FFC58BB0723637001256AE707232D
:10476000437000220521D0F8C80300F0ABFD0125FD
:1047700060E790F8301351B1FF2300F58E7200F01E
:1047800078FC054600283FF455AF012552E700228A
:104790000521D0F8C80300F095FD00254AE7012562
:1047A00048E7012546E7012544E7012542E70125C1
:1047B00040E7000068B370B588B004460D4680F845
:1047C000BC230023C0F87433C0F87833FFF7EDFE44
:1047D0000DB1C4F8C453104D06AB95E8030083E84F
:1047E00003000021184600F066FDC4F8C80301AEBE
:1047F00008350FCD0FC62B683360214601A800F0A5
:1048000037FDC4F8CC03204602F0D2FF002008B0E8
:1048100070BD0220704700BF4C8C00080A4651B1A1
:10482000D0F878334BB9591CC0F87813DC3340F812
:10483000232000207047022070470220704790F824
:1048400036338B4203D980F81F13002070470220B3
:10485000704770B400240AE01A2505FB060696F896
:1048600043539D4219D0FF2B17D0013464B2012C61
:1048700015DC26461A2505FB040595F841538D42A3
:1048800001D0FF29F1D11A2505FB060595F8425301
:104890009542E1D0FF2AE8D1DEE7E0B200E0FF2058
:1048A00070BC704710B5044602F0B0FF01212046ED
:1048B00003F032F8002010BD30B587B00446022363
:1048C0008DF817300378DBB20A2B4FD8DFE803F0FE
:1048D000064E19CD4E51AF62717AC60090F81E3364
:1048E000002B43D001250570C82003F03CF820467A
:1048F00002F0B6FF00222946D4F8C80300F0E2FC1B
:1049000034E0642003F02FF8204602F09BFF84F887
:104910001D03052323700021204600F07BFC6071FD
:104920008021204600F076FC0146207194F81C336B
:10493000A27902920025019594F81D23009280220D
:10494000204600F052FC94F81C336179A27902925F
:10495000019594F81D2300922A46204600F045FC5C
:104960002A460121D4F8C80300F0ACFC002007B0AF
:1049700030BDFFF74DFE0028F8D1002384F81F3327
:1049800094F83133012B02D007232370EEE708237C
:104990002370EBE7D0F8C433002BE7D00121984710
:1049A0000823237000220521D4F8C80300F08AFCF4
:1049B000DCE790F8371300F085FB0028D6D10923F7
:1049C0002370D3E7D0F878338BB10023C0F8743369
:1049D000A3B1D4F874333BB39B682046984700BB1F
:1049E00006232370D4F8C4330321204698470022BD
:1049F0000521D4F8C80300F065FCB7E703F1DC0239
:104A000054F82220117994F84123914202D00133C5
:104A1000DBB2DDE703F1DC0254F82220C4F8742392
:104A2000F5E70C232370E2E70C232370DFE7D0F8CF
:104A3000743353B11B6998478DF817009DF81730F0
:104A4000002B93D10A23237090E70C2303700022DC
:104A50000521D0F8C80300F035FC87E7D0F874339F
:104A6000002B83D05B69984780E7FFF79EFDD4F861
:104A70007433002B3FF47AAFDB682046984700235D
:104A8000C4F8743372E700B585B004464FF0FF32C6
:104A9000D4F8C81301A800F049FC019B102BF5D1F4
:104AA0002046FFF709FFF1E7C0F8B813704708B5D3
:104AB000D0F8B8330133C0F8B833FFF79CFD08BD18
:104AC00010B5044603787BB9012380F81E33D0F873
:104AD000C4330BB10421984700220121D4F8C80344
:104AE00000F0F0FB002010BD0378DBB2012BF3D106
:104AF00002230370F0E710B5044602F095FE217919
:104B0000204600F099FB6179204600F095FB0023D8
:104B100084F81E33D4F8C43313B1052120469847D6
:104B2000204602F073FE0323237000220121D4F8F3
:104B3000C80300F0C7FB002010BD08B50022022109
:104B4000D0F8C80300F0BEFB002008BD10B40B78FD
:104B500003704B7843708B78CC7803EB042343804D
:104B60000B7903714B7943718B798371CB79C37165
:104B7000082A16D90B7A4A7A03EB022303818B7A2F
:104B8000CA7A03EB022343810B7B4A7B03EB0223AC
:104B900083818B7B8373CB7BC3730B7C03744B7CD4
:104BA00043745DF8044B70470B7803704B78437087
:104BB0008B788370CB78C3700B7903714B79437119
:104BC0008B798371CB79C3710B7A037270470B7841
:104BD00003704B7843708B788370CB78C3700B79FC
:104BE0004A7903EB022383808B7983717047437882
:104BF000032B00D070470378023B9A42A8BF1A46A5
:104C000092B2002393420DD210B4C418A47801F8D4
:104C1000014B02339BB29342F7D300230B705DF834
:104C2000044B704700230B70704730B583B00446C7
:104C3000037E013B0A2B00F23A81DFE813F00B0000
:104C400015004400500077008500BA00C600ED0052
:104C5000FB002401427900F1100100F056FA022312
:104C60002376012003B030BD417902F04FFE0128C8
:104C700003D004281DD00120F4E7237CE28A7AB116
:104C800013F0800F09D10523237600220321D4F8E5
:104C9000C80300F017FB0120E4E703232376F4E7C1
:104CA00013F0800F02D107232376EEE70923237642
:104CB000EBE70B23237600220321D4F8C80300F08E
:104CC00001FB0120CEE7D0F8B833C3810379828994
:104CD000816800F041FA042323760120C2E70179BC
:104CE00002F014FE0546012805D0052D0CD0042D38
:104CF00012D00120B6E70923237600220321D4F83D
:104D0000C80300F0DFFAF0E700220321D4F8C8035B
:104D100000F0D8FA0320A5E70B2323760022032115
:104D2000D4F8C80300F0CEFA01209BE743798289CA
:104D300001250095816800F0F9F9D4F8B833E381D2
:104D40000623237628468DE7417902F0DFFD01280E
:104D500007D005280FD0022817D004281FD0012023
:104D600080E70723237600220321D4F8C80300F04C
:104D7000A9FA012076E70C23237600220321D4F838
:104D8000C80300F09FFA03206CE705232376002276
:104D90000321D4F8C80300F095FA012062E70B2341
:104DA000237600220321D4F8C80300F08BFA0220F6
:104DB00058E703790022114600F0CEF9D4F8B83351
:104DC000E3810823237601204CE7017902F09EFD60
:104DD000012805D004280DD0052815D0012041E771
:104DE0000D23237600220321D4F8C80300F06AFAC9
:104DF000002037E70B23237600220321D4F8C803D1
:104E000000F060FA01202DE700220321D4F8C80346
:104E100000F058FA032025E7437901250095002288
:104E2000114600F083F9D4F8B833E3810A232376DE
:104E3000284617E7417902F069FD012805D00228CC
:104E40000DD0042815D001200CE70D232376002275
:104E50000321D4F8C80300F035FA002002E7092343
:104E6000237600220321D4F8C80300F02BFA012096
:104E7000F8E60B23237600220321D4F8C80300F0C0
:104E800021FA0120EEE6437E0133DBB24376022BAA
:104E900007D9D0F8C433062198470023637602204F
:104EA000E0E602F0C1FC01202076A070DAE60120E5
:104EB000D8E603780A8813440B80037818447047B7
:104EC0002DE9F04383B00C460B7803704B784370A8
:104ED0008B78C97803EB01234380237903716379CD
:104EE0004371A3798371E379C371237A0372092A29
:104EF00047D905460923ADF806300026012E40DCCF
:104F00006A88BDF806309A423BD90DF10601204669
:104F1000FFF7CFFF04464378042BEFD1B1461A20A8
:104F200000FB06F00830284421460230FFF73CFE23
:104F30000027B8461A2303FB09539B7B9F421DDAC7
:104F40006A88BDF806309A4218D90DF1060120464C
:104F5000FFF7AFFF04464378052BEAD108F10108BB
:104F60001A2000FB09F000EBC80008302844214655
:104F70000430FFF72CFE01377FB2DAE7013676B254
:104F8000BCE703B0BDE8F08338B504468378012B55
:104F900003D0022B0FD001250BE081608281012517
:104FA00005760223837000220321D0F8C80300F0A5
:104FB00089F9284638BDFFF738FE054620B102289A
:104FC000F7D10122A270F4E70122A270002222761A
:104FD000EFE738B5BDF810508478012C04D02A468C
:104FE0001946FFF7D1FF38BD61F07F040474062134
:104FF0004174428202F47F44B4F5407F03D0002222
:105000008282C582EBE740F209428282F9E7F0B57D
:1050100083B0044600F58E750E4600912B464FF482
:1050200080720021FFF7D5FF074610B1384603B064
:10503000F0BD3246294604F54870FFF787FDF5E7D5
:10504000F0B583B004460E4600F11C0500912B46D6
:105050004FF400720021FFF7BCFF074610B138463D
:1050600003B0F0BD3246294604F23230FFF728FF84
:10507000F5E7F0B583B017461D4600F58E74009332
:10508000234641F440720021FFF7A3FF064610B10A
:10509000304603B0F0BD2A4639462046FFF7A7FD4B
:1050A000F6E708B58378012B04D000221146FFF7FC
:1050B0006BFF08BD00230374052242744182838282
:1050C000C382F2E708B58378012B04D00022114691
:1050D000FFF75AFF08BD002303740922427441827E
:1050E0008382C382F2E708B58378012B04D00022C3
:1050F0001146FFF749FF08BD0223037401234374DF
:10510000002343828182C382F1E730B585B0154622
:10511000002403940823029301910094234622461D
:10512000294602F0D8FB204605B030BD30B585B029
:105130000C4619469DF8203090F81D5305B1002308
:105140000393029201940123009300231A4602F074
:10515000C2FB002005B030BD30B585B01D4600242F
:10516000039402920191012200922346294602F003
:10517000B2FB204605B030BD30B585B00C461946AF
:105180009DF8203090F81D5305B10023039302923F
:105190000194012300930223002202F09CFB0020D3
:1051A00005B030BD30B585B01D4600240394029291
:1051B0000191012200920223294602F08CFB204635
:1051C00005B030BD00230A2B0CD803F1DE0200EB42
:1051D0008202526812F4004F02D00133DBB2F2E7D0
:1051E00098B270474FF6FF70704710B584B0BDF8A5
:1051F000204002949DF81C4001949DF818400094B2
:1052000002F042FB002004B010BD08B502F055FBCF
:10521000002008BD38B504460D46FFF7D3FF4FF612
:10522000FF73984206D045F4004500F1DE0304EB1D
:1052300083046560C0B238BD0A2906D8DE3100EBB0
:1052400081014B68C3F30E034B6000207047842834
:1052500001D00330704700207047EFF30580003025
:1052600018BF0120704708B500F0B4FD002008BD4C
:10527000F0B585B00F46446805680669B0F90800C6
:10528000FFF7E5FF03AB019300903B46B2B229461E
:10529000204600F06DFD012802D1039805B0F0BD55
:1052A0000020FBE708B5034600B90123184600F0CB
:1052B000D3FE002008BD08B500224168006800F058
:1052C000C5F908BD30B585B00446019100230393AC
:1052D000154602B90125FFF7C0FF98B1002303AAC4
:1052E00001A9204600F094FA012818D1039BC3B10C
:1052F0000D4B4FF080521A60BFF34F8FBFF36F8F8B
:10530000002008E000232A4601A9204600F0C2F947
:10531000012802D1002005B030BDFF20FBE7FF20AF
:10532000F9E70020F7E700BF04ED00E070B584B0B6
:10533000044602910023019349B10D46164600230D
:105340000393B2F1FF3F0BD062B91E460AE004ABF3
:10535000802243F8102D93E8070084E807002BE033
:105360004FF0FF36FFF779FFB0B103AA01A9284635
:1053700000F086FB01280CD000230093039BB3B1FF
:10538000114B4FF080521A60BFF34F8FBFF36F8FF6
:105390000DE010230093F1E70023324601A92846CF
:1053A00000F09CFA01280AD066B9002300936B46EE
:1053B00093E8070084E80700204604B070BD10237E
:1053C0000093F4E74023F1E704ED00E008B500F0B6
:1053D000A7FF012801D001F03DF908BD00F1080345
:1053E00043604FF0FF328260C360036100230360BB
:1053F000704700230361704743684B609A688A6076
:105400009A685160996008610368013303607047CE
:1054100030B40D68B5F1FF3F02D000F1080202E0A0
:10542000026904E01A4653681C68AC42FAD9536812
:105430004B6099608A6051600861036801330360C2
:1054400030BC704703694268816891608268416836
:1054500051605A68824205D0002202611868013802
:105460001860704782685A60F6E710B5044601F08C
:1054700081F8A26BE36B9A4204D0002401F09CF8FF
:10548000204610BD0124F9E710B5044601F072F87A
:10549000A36B23B1002401F08FF8204610BD012436
:1054A000F9E770B504461646856B026C5AB9036875
:1054B0001BB100200135A56370BD406800F096FF68
:1054C00000236360F6E76EB9806802F0BBFA226CD5
:1054D000A3681344A3606268934219D32368A3604E
:1054E0000020E7E7C06802F0ADFA226C5242E368A0
:1054F0001344E36021688B4202D263681A44E2607D
:10550000022E01D00020D5E725B1013D0020D1E7D2
:105510000020CFE70020CDE7026C72B110B5C36860
:105520001344C3604468A34201D30368C3600C46BC
:10553000C168204602F086FA10BD704738B50546AE
:1055400001F018F895F8454064B203E000F0E0FE81
:10555000013C64B2002C08DD6B6A33B105F1240014
:1055600000F040FE0028F3D0F0E7FF2385F8453037
:1055700001F022F800F0FEFF95F8444064B203E029
:1055800000F0C6FE013C64B2002C08DD2B6933B18B
:1055900005F1100000F026FE0028F3D0F0E7FF230D
:1055A00085F8443001F008F838BD000038B540B93E
:1055B0004FF0500383F31188BFF36F8FBFF34F8F0A
:1055C000FEE704460D4600F0D5FF2168E26B236C30
:1055D00003FB021060600020A063A160013A02FB9F
:1055E0000313E360FF2384F8443084F84530A5B901
:1055F00023691BB900F0E0FF012038BD04F1100061
:1056000000F0F0FD0028F5D0084B4FF080521A60F2
:10561000BFF34F8FBFF36F8FECE704F11000FFF77C
:10562000DDFE04F12400FFF7D9FEE3E704ED00E01E
:1056300010B5029B0C4639B11A60D8631C64012175
:105640001846FFF7B3FF10BD1B60F6E740B94FF0F7
:10565000500383F31188BFF36F8FBFF34F8FFEE7C3
:10566000F0B583B0054611B101FB00F000E0002069
:1056700017460C46483001F009F9064638B100904B
:105680003B4600F1480221462846FFF7D1FF30464D
:1056900003B0F0BDF0B585B0019260B1044699B990
:1056A000026C8AB14FF0500383F31188BFF36F8F00
:1056B000BFF34F8FFEE74FF0500383F31188BFF322
:1056C0006F8FBFF34F8FFEE7022B0BD1E26B012AE6
:1056D00008D04FF0500383F31188BFF36F8FBFF3EF
:1056E0004F8FFEE71E460F4600F01AFE50B9019B91
:1056F00053B14FF0500383F31188BFF36F8FBFF3A3
:105700004F8FFEE700253AE0002538E03246394663
:105710002046FFF7C6FE636A4BB9A8B13B4B4FF07A
:1057200080521A60BFF34F8FBFF36F8F0CE004F10C
:10573000240000F057FD38B1344B4FF080521A600E
:10574000BFF34F8FBFF36F8F00F036FF012005B01E
:10575000F0BD00F031FF0020F9E702A800F084FD61
:10576000012519E0002384F8443021E0002384F867
:10577000453023E02046FFF7E1FE00F0F5FB00F0A6
:10578000F9FEA26BE36B9A42C0D3022EBED0019BFE
:10579000002BDED0002DE0D000F00EFF00F054FB17
:1057A00000F0E8FE94F844305BB2B3F1FF3FD9D08B
:1057B00094F845305BB2B3F1FF3FD7D000F0FCFE68
:1057C00001A902A800F064FDC8B92046FFF74DFE0C
:1057D0000028CFD0019904F1100000F0E9FC204628
:1057E000FFF7ACFE00F0C0FB0028C8D1074B4FF01C
:1057F00080521A60BFF34F8FBFF36F8FBFE7204611
:10580000FFF79CFE00F0B0FB0020A0E704ED00E0F5
:105810002DE9F84360B1044699B9006C88B14FF0A6
:10582000500383F31188BFF36F8FBFF34F8FFEE7F1
:105830004FF0500383F31188BFF36F8FBFF34F8F87
:10584000FEE7022B0BD1E06B012808D04FF050038C
:1058500083F31188BFF36F8FBFF34F8FFEE71F46AF
:105860009046894600F096FFEFF311864FF0500303
:1058700083F31188BFF36F8FBFF34F8FA26BE36B7E
:105880009A4203D3022F01D000200FE094F8455034
:105890006DB23A4649462046FFF703FEB5F1FF3F99
:1058A00008D06B1C5BB284F84530012086F3118868
:1058B000BDE8F883636A5BB104F1240000F092FC58
:1058C00040B1B8F1000F07D00120C8F80000EDE7A3
:1058D0000120EBE70120E9E70120E7E72DE9F041AE
:1058E00084B0019260B1044699B9026C8AB14FF05C
:1058F000500383F31188BFF36F8FBFF34F8FFEE721
:105900004FF0500383F31188BFF36F8FBFF34F8FB6
:10591000FEE71F46884600F003FD50B9019B53B1D6
:105920004FF0500383F31188BFF36F8FBFF34F8F96
:10593000FEE700265FE000265DE0E668414620467F
:10594000FFF7EAFDDFB9013DA563236813B900F055
:10595000A5FD6060236963B104F1100000F042FC12
:1059600038B1464B4FF080521A60BFF34F8FBFF3F0
:105970006F8F00F021FE012004B0BDE8F081E660E9
:10598000636A002BF5D004F1240000F02BFC002802
:10599000EFD03A4B4FF080521A60BFF34F8FBFF3F6
:1059A0006F8FE6E700F008FE0020E5E702A800F0B0
:1059B0005BFC012629E0002384F8443031E0002319
:1059C00084F8453033E000F0D5FD606800F0B8FCA5
:1059D00000F0F2FD3BE02046FFF7B0FD00F0C4FA16
:1059E00009E02046FFF7AAFD00F0BEFA2046FFF7C7
:1059F0004BFD002840D100F0BDFDA56B002D9CD1D2
:105A0000019B002BCED0002ED0D000F0D5FD00F0B1
:105A10001BFA00F0AFFD94F844305BB2B3F1FF3FE6
:105A2000C9D094F845305BB2B3F1FF3FC7D000F066
:105A3000C3FD01A902A800F02BFC0028D1D120460B
:105A4000FFF722FD0028C6D02368002BBBD00199A8
:105A500004F1240000F0ACFB2046FFF76FFD00F0DE
:105A600083FA0028C7D1054B4FF080521A60BFF36C
:105A70004F8FBFF36F8FBEE700207DE704ED00E09E
:105A80002DE9F84360B1044699B9036C8BB14FF02E
:105A9000500383F31188BFF36F8FBFF34F8FFEE77F
:105AA0004FF0500383F31188BFF36F8FBFF34F8F15
:105AB000FEE71746894600F06DFEEFF311864FF0C2
:105AC000500383F31188BFF36F8FBFF34F8FD4F868
:105AD0003880B8F1000F1DD094F844506DB249469B
